:020000040800F2
:100000000050002021020008270200082B020008EF
:100010009D020008A1020008E9020008000000009B
:100020000000000000000000000000003103000894
:100030003503000800000000390300083D030008F4
:100040004D0300084D0300084D0300084D03000850
:100050004D0300084D0300084D0300084D03000840
:100060004D0300084D0300084D0300084D03000830
:100070004D0300084D0300084D0300084D03000820
:100080004D0300084D0300084D0300084D03000810
:100090004D0300084D0300084D0300084D03000800
:1000A0004D0300084D0300084D0300084D030008F0
:1000B0004D0300084D0300084D0300084D030008E0
:1000C0004D0300084D0300084D0300084D030008D0
:1000D0004D0300084D0300084D0300084D030008C0
:1000E0004D0300084D0300084D0300080000000008
:1000F0000000000000000000000000000000000000
:1001000000000000000000005FF808F100B583B0B7
:1001100000F0D4FE304B314A1360314A1360314B4A
:10012000314A03E052F8041B43F8041B2F498B4269
:10013000F8D32A4B1A682E4B9A4200D0FEE7284B80
:100140001A682C4B9A42F9D1234B2B4A13602B4A45
:1001500013602B4B02E0002243F8042B294A934200
:10016000F9D3254B1B6813B9244B1B6803B1FEE779
:1001700000F0B0FE694601A800F030FE224C234B8F
:10018000E41AA410002504E0204B53F825309847CA
:100190000135AC42F8DC1E4C1E4BE41AA4100025BD
:1001A00004E01C4B53F8253098470135AC42F8DC8D
:1001B0000099019801F050F80546174C174BE41AC6
:1001C000A41004E0013C154B53F824309847002C50
:1001D000F8DC284600F0D4FDBABADECA00000020E0
:1001E00004020020000000208848000808020020C7
:1001F000785634123254769808020020D00200203B
:1002000008020020D40200207803000878030008C8
:1002100078030008780300087803000878030008D2
:1002200008B5FFF773FF00BEFEE71EF0040F0CBF1A
:10023000EFF30880EFF309807146414A10472DE93A
:10024000F04182B004468846124B5E6B9F6B9D6AFC
:100250001B6B13F0020F03D00E4BDB6A002B0CDB81
:100260000D4800F0CDFDCDF800803B4632462946D2
:10027000204600F033FE00BEFEE74BF6AB6100F017
:10028000A7FE0028ECD0034B4FF00042DA6202B028
:10029000BDE8F08100ED00E0F045000800BEFEE79B
:1002A0001EF0040F0CBFEFF30880EFF309807146D6
:1002B000244A10472DE9F04182B004468846084B95
:1002C0005E6B9F6B9D6A074800F09AFDCDF8008039
:1002D0003B4632462946204600F000FE00BEFEE7BF
:1002E00000ED00E0004600081EF0040F0CBFEFF325
:1002F0000880EFF309807146134A10472DE9F04159
:1003000082B004468846084B5E6B9F6B9D6A074827
:1003100000F076FDCDF800803B4632462946204667
:1003200000F0DCFD00BEFEE700ED00E00C4600083A
:1003300000BEFEE700BEFEE700BEFEE7704700001D
:100340003F020008B5020008FD02000800BEFEE7FB
:1003500088480008000000200802002088480008A3
:10036000000000000000000008020020D40200206D
:08037000000000000000000085
:1003780038B505460C46484B98420BD003F58063C8
:10038800984207D003F5A053984203D0E52143488B
:1003980000F028FD2368D3B1B3F5803F17D0B3F53B
:1003A800003F14D0B3F5403F11D0B3F5802F0ED0E5
:1003B800B3F5A02F0BD0B3F5C02F08D0B3F5E02FBD
:1003C80005D0B3F5002F02D0B3F5102F46D123790D
:1003D800012B48D86379012B4AD8A368A3B1B3F598
:1003E800003F11D0B3F5802F0ED0B3F5C02F0BD03E
:1003F800B3F5002F08D0B3F5202F05D0B3F5402F63
:1004080002D0B3F5602F38D1E36813B1B3F5006FAC
:1004180038D1237C013BDBB20F2B38D86A6822F431
:10042800702222F480722368217943EA012313435E
:100438006B60AB681A4A1A40E368A1680B4361799C
:1004480043EA41031343AB60EB6A23F47003227C55
:10045800013AD2B243EA0253EB6238BDE6210F48B3
:1004680000F0C0FCB3E7E7210C4800F0BBFCB1E7A3
:10047800E8210A4800F0B6FCAFE7E921074800F098
:10048800B1FCC1E7EA21054800F0ACFCC1E7EB216B
:10049800024800F0A7FCC1E700240140CC43000853
:1004A800FDF7F1FF38B504460D46114B98420CD0C4
:1004B80003F58063984208D003F5A053984204D00E
:1004C8004FF49A710B4800F08DFC012D05D855B1F9
:1004D800A36843F00103A36038BD40F23511054815
:1004E80000F080FCF3E7A36823F00103A360F3E7BF
:1004F80000240140CC43000810B504460A4B98423A
:100508000CD003F58063984208D003F5A0539842B5
:1005180004D04FF4C271054800F064FCA36843F0AE
:100528000803A36010BD00BF00240140CC430008AD
:1005380010B504460B4B98420CD003F580639842E3
:1005480008D003F5A053984204D04FF4C971064867
:1005580000F048FCA36813F0080F01D0012010BD7B
:100568000020FCE700240140CC43000810B50446F5
:100578000A4B98420CD003F58063984208D003F5E3
:10058800A053984204D04FF4D571054800F02AFCD6
:10059800A36843F00403A36010BD00BF002401401A
:1005A800CC43000838B504460D46114B98420CD090
:1005B80003F58063984208D003F5A053984204D00D
:1005C8004FF4E9710B4800F00DFC012D05D855B129
:1005D800A36843F4A003A36038BD40F2D3110548D3
:1005E80000F000FCF3E7A36823F4A003A360F3E79B
:1005F80000240140CC430008F8B505460E461446D1
:100608001F46374B98420CD003F58063984208D0B8
:1006180003F5A053984204D04FF41671314800F006
:10062800E1FB112E22D8631EDBB20F2B24D8072F33
:1006380028D8092E2CD9EA68A6F10A0303EB43034C
:100648000721994022EA01029F401743EF60062CD8
:1006580029D8696B013C04EB84041F23A34021EAD9
:10066800030106FA04F40C436C63F8BD40F2592107
:100678001C4800F0B7FBD6E740F25A21194800F0B1
:10068800B1FBD4E740F25B21164800F0ABFBD0E7A2
:100698002B6906EB460107228A4023EA02038F40B2
:1006A8001F432F61D3E70C2C0CD8296B073C04EBB4
:1006B80084041F23A34021EA030106FA04F40C432F
:1006C8002C63D2E7EB6AA4F10D0101EB81011F2233
:1006D8008A4023EA020306FA01F11943E962C4E7F2
:1006E80000240140CC43000810B50446094B984249
:1006F8000CD003F58063984208D003F5A0539842C4
:1007080004D040F2CD21044800F06CFBE06C80B2CC
:1007180010BD00BF00240140CC430008F8B50546D1
:100728000C46494B98421BD003F58063984217D07A
:1007380003F58063984213D003F5806398420FD085
:1007480003F5806398420BD003F58063984207D085
:1007580003F58063984203D0B2213C4800F042FB85
:10076800E3786BB1042B0BD0282B09D0482B07D08A
:10077800142B05D0102B03D01C2B01D0182B14D10F
:100788002388BBB1E37803F00F06304613F0100F4F
:1007980006D0A378013BDBB2022B10D8A0783043F7
:1007A80023785BB32E68002310E0B321274800F0BC
:1007B80019FBE5E7B421254800F014FBE2E7BB216B
:1007C800224800F00FFBE9E76A610133072B14D8D0
:1007D80001229A40218832EA0101F6D199000F27B7
:1007E8008F4026EA070600FA01F10E43E17828292E
:1007F800EAD04829E9D12A61E7E72E602388FF2B50
:1008080020D96E68002302E06A6115E00133072BE6
:1008180017D803F1080101228A40218832EA010130
:10082800F4D199000F278F4026EA070600FA01F154
:100838000E43E1782829E7D0E1784829E6D12A61F2
:10084800E4E76E60F8BD00BF00080140FC43000803
:1008580038B504460D462A4B98421CD003F58063F0
:10086800984218D003F58063984214D003F580634A
:10087800984210D003F5806398420CD003F580634A
:10088800984208D003F58063984204D04FF48F71E2
:100898001C4800F0A7FA6B1E9BB2012B23D9042D2C
:1008A80021D0082D1FD0102D1DD0202D1BD0402D5C
:1008B80019D0802D17D0B5F5807F14D0B5F5007FFD
:1008C80011D0B5F5806F0ED0B5F5006F0BD0B5F52A
:1008D800805F08D0B5F5005F05D0B5F5804F02D030
:1008E800B5F5004F04D1A3681D4207D0012038BDDB
:1008F80040F21F11034800F075FAF4E70020F6E70C
:1009080000080140FC43000810B5044640B1B0F5AA
:10091800804F05D0B0F5004F02D0B0F5404F06D15A
:10092800064A536823F440431C43546010BD40F208
:100938000231034800F056FAF2E700BF0010024007
:100948003044000810B4294B5B6803F00C03042BF7
:100958002BD0082B2CD013B1254B036001E0244B7E
:10096800036022494B68C3F30313224CE35CDAB2F9
:100978000368D34043604A68C2F30222A25CD2B241
:1009880023FA02F282604A68C2F3C222A25CD2B29F
:10099800D340C3604A68C2F3813217498A5CD2B235
:1009A800B3FBF2F3036110BC7047144B0360D8E744
:1009B8000E4A53685268C3F38343023312F4803FEC
:1009C80004D10F4A02FB03F30360CAE7074A5268DF
:1009D80012F4003F04D00B4A02FB03F30360C0E7A4
:1009E800064A02FB03F30360BBE700BF00100240A6
:1009F80000127A000800002004000020001BB70045
:100A080000093D00808D5B0038B504460D460E4B4D
:100A1800034003B920B940F24A410C4800F0E2F91A
:100A2800012D05D855B10A4A93691C43946138BD14
:100A380040F24B41054800F0D5F9F3E7044A9369C1
:100A480023EA04049461F2E70200C0FF304400087E
:100A58000010024030B587B004460D46674B9842F7
:100A680013D0A3F5744398420FD003F580639842DE
:100A78000BD003F58063984207D003F58063984252
:100A880003D0B8215E4800F0ADF92B68013B5D4A00
:100A9800934200F28580AB881BB1B3F5805F40F0CC
:100AA8008480EB8843B1B3F5805F05D0B3F5005F70
:100AB80002D0B3F5405F7DD12B892BB1B3F5806FA0
:100AC80002D0B3F5C06F7AD16A8922F00C039BB2C9
:100AD80003B91AB9BD214A4800F084F9AB8943B17A
:100AE800B3F5807F05D0B3F5007F02D0B3F5407F22
:100AF8006AD1AB8973B1414B9C420BD0A3F57443C7
:100B08009C4207D003F580639C4203D0C2213C4835
:100B180000F068F9238A9BB2EA8823F44053134310
:100B28002382A3899BB2A98828896A8901430A4339
:100B380023F4B05323F00C031343A381A38A9BB27D
:100B4800AA8923F440731343A38201A8FFF7FAFE8E
:100B58002A4B9C423DD0039BA28912F4004F3AD104
:100B680003EB830303EB830329688900B3FBF1F1EB
:100B7800254BA3FB012358090501642300FB13132C
:100B8800A28912F4004F2FD11B0132331E4AA2FB57
:100B98000323C3F343132B439BB2238107B030BD18
:100BA800B921174800F01EF975E7BA21144800F07A
:100BB80019F976E7BB21124800F014F97CE7BC214B
:100BC8000F4800F00FF97FE7BE210D4800F00AF941
:100BD8008FE7049BC0E703EB830303EB83032968D8
:100BE8004900B3FBF1F1C3E7DA003232064BA3FB4D
:100BF8000232C2F3421242EA0503CDE7003801404F
:100C0800604400081FAA44001F85EB5138B504460C
:100C18000D46164B984214D0A3F57443984210D051
:100C280003F5806398420CD003F58063984208D09E
:100C380003F58063984204D04FF4B1710C4800F07A
:100C4800D1F8012D05D855B1A38943F40053A381E8
:100C580038BD40F26311064800F0C4F8F3E7A389F1
:100C68009BB223F400539BB2A381F1E70038014003
:100C78006044000838B505460C46124B984214D01B
:100C8800A3F57443984210D003F5806398420CD0C2
:100C980003F58063984208D003F58063984204D036
:100CA80040F25F21084800F09DF8B4F5007F03D2B8
:100CB800C4F30804AC8038BD4FF41871024800F042
:100CC80091F8F5E7003801406044000838B505465A
:100CD8000C46274B984214D0A3F57443984210D081
:100CE80003F5806398420CD003F58063984208D0DE
:100CF80003F58063984204D040F286311D4800F025
:100D080071F8012C13D0802C11D0402C0FD0202C3E
:100D18000DD0102C0BD0B4F5807F08D0B4F5007F2F
:100D280005D0082C03D0042C01D0022C07D1B4F52F
:100D3800007F0AD02B881C4218D0012038BD40F211
:100D480087310C4800F04EF8F1E7094B9D42F1D08D
:100D5800A3F574439D42EDD003F580639D42E9D02D
:100D680040F28B31034800F03DF8E3E70020E5E767
:100D78000038014060440008FEE7000008B5034859
:100D880000F054F80120FFF7F7FF00BF9444000873
:100D980008B503460C4A12685AB10B4A1068033367
:100DA80023F003030344094A934206D8064A136012
:100DB80008BD054A06491160EFE701F04FFA0C2318
:100DC80003604FF0FF30F3E70C020020004C0020D6
:100DD800D402002001230360014B0B60704700BF61
:100DE8001800002008B50A460146024800F004F839
:100DF800FFF7C4FFA84400080FB400B583B004ABE4
:100E080053F8042B01938021074801F0BFFE002806
:100E180004DC03B05DF804EB04B0704701460248F7
:100E280000F044F8F5E700BF1402002010B50446AE
:100E380001F078FE0146204600F038F8012102480A
:100E480000F034F810BD00BF6C4500082DE9F043F0
:100E580085B004460F46435633BB04252846214631
:100E6800ABBE0446384605B0BDE8F08304AA134477
:100E7800002203F8102C4FF00408E9464046494682
:100E8800ABBE8046761B002EECD03546102E28BF10
:100E980010250023AB42E9D214F9011B04AA1A4415
:100EA80002F8101C0133F5E70E46ECE708B5FFF72A
:100EB800CDFF08BD08B500F0FDF8024A024B9A6064
:100EC80008BD00BF0000000800ED00E008B500F014
:100ED80019F908BDF8B504460D4617461E462748B9
:100EE800FFF78AFF21682648FFF786FF61682548D3
:100EF800FFF782FFA1682448FFF77EFFE1682348D7
:100F0800FFF77AFF21692248FFF776FF61692148D8
:100F1800FFF772FFA1692048FFF76EFFE1691F48DC
:100F2800FFF76AFF1E48FFF767FF29461D48FFF7CE
:100F380063FF1D4CE16A1D48FFF75EFF216B1C48EB
:100F4800FFF75AFFE16B1B48FFF756FF15F0800FBC
:100F58000AD115F4004F0CD11748FFF74DFF069939
:100F68001648FFF749FFF8BD39461548FFF744FF13
:100F7800EFE731461348FFF73FFFEDE7D444000899
:100F8800E4440008F4440008044500081445000837
:100F98002445000834450008444500085445000825
:100FA800644500087045000800ED00E08045000831
:100FB80090450008A0450008D0450008D84500081D
:100FC800B0450008C045000883691A888A4201D0E4
:100FD800002070470268033A012A01D900207047AF
:100FE800023383610120704782B00023019300938C
:100FF8002C4A136843F4803313602A4B1B6803F4AC
:1010080000330093019B01330193009B1BB9019BA3
:10101800B3F5A06FF1D1234B1B6813F4003F06D042
:1010280001230093009B012B04D002B070470023DA
:101038000093F7E71C4B1A6842F010021A601A680E
:1010480022F003021A601A6842F002021A60A3F53D
:1010580080535A685A605A685A605A6842F48062E3
:101068005A605A6822F47C125A605A6842F4E812AC
:101078005A601A6842F080721A600A4B1B6813F0B3
:10108800007FFAD0074B5A6822F003025A605A6868
:1010980042F002025A60034B5B6803F00C03082B12
:1010A800F9D1C2E7001002400020024008B5FFF75E
:1010B8009BFF08BD08B5104B1A6842F001021A6080
:1010C80059680E4A0A405A601A6822F0847222F45B
:1010D80080321A601A6822F480221A605A6822F450
:1010E800FE025A604FF41F029A60FFF7DFFF044BBD
:1010F8004FF000629A6008BD001002400000FFF83F
:1011080000ED00E01F4B5B6803F00C03042B15D0C7
:10111800082B17D01BB11C4B1C4A1A6002E01A4B53
:101128001A4A1A60174B5B68C3F30313184AD35C57
:10113800DAB215490B68D3400B607047124B154A59
:101148001A60EFE70F4A53685268C3F383430233C8
:1011580012F4803F05D1104A02FB03F30A4A1360D8
:10116800E0E7084A526812F4003F05D00B4A02FB38
:1011780003F3054A1360D5E7064A02FB03F3024A64
:101188001360CFE7001002403000002000127A0000
:1011980020000020001BB70000093D00808D5B0087
:1011A80030B587B0012144F20400FFF72DFC4FF45D
:1011B8000073ADF8143018238DF8173003258DF817
:1011C8001650164C05A92046FFF7A8FA4FF480637D
:1011D800ADF8143004238DF817308DF8165005A992
:1011E8002046FFF79BFA4FF4E13301930023ADF853
:1011F8000830ADF80A30ADF80C30ADF810300C23DB
:10120800ADF80E3004F5405401A92046FFF722FC42
:1012180001212046FFF7FAFC07B030BD0008014065
:1012280038B504464D1E69B114F9011B89B2064848
:10123800FFF720FD40210448FFF748FD0028F9D0BA
:101248002946EFE738BD00BF003801400000000024
:101258002DE9F04F89B0FFF7A3FF01210820FFF720
:10126800D3FB2023ADF81C3000248DF81F4007A9BC
:101278007148FFF753FA4FF40040FFF745FB01218F
:101288004FF40070FFF7C0FB02948DF80C40012565
:101298008DF80D504FF46023049305948DF8185081
:1012A800664C03232A4605212046FFF7A5F902A923
:1012B8002046FFF75DF829462046FFF7F3F8204659
:1012C800FFF71AF95D48FFF733F90028FAD15B48B0
:1012D800FFF74CF95948FFF72BF90028FAD1574C7A
:1012E80001212046FFF7DEF801212046FFF75AF9D1
:1012F8004023ADF8043028268DF8076003258DF8C3
:101308000650A4F5C05401A92046FFF707FA802328
:10131800ADF804308DF807608DF8065001A9204615
:10132800FFF7FCF90025AB462F464FF0000A32E0E4
:10133800C34545D12C4607E0B9F1000F4ED1002B2B
:101348004ED06C1E00E02C46A5424BD13B48FFF71F
:10135800CBF900F0DFFD4FF0665100F02FFE00F0F2
:10136800DDF931A3D3E9002300F030FA00F0C8FC1E
:101378008146514600F018FD20F0004000F0CEF9FB
:101388002BA3D3E9002300F0B1FC002839D125466E
:10139800C3463746CA462A4C40212046FFF758FA2A
:1013A8008146061C18BF012680212046FFF750FA07
:1013B800034610F1000818BF4FF00108B742B7D034
:1013C800002FC0D1BBF1000F06D1B9F1000FB3D087
:1013D800002BB1D16C1CB7E72C46B5E72C46B3E718
:1013E8002C46B1E7C4EBC4035A00164D16492846EB
:1013F80001F078FB0146154B18602846FFF710FFEF
:10140800A4E7484600F08AF90E4D02460B461049FB
:10141800284601F067FB01460C4B18602846FFF789
:10142800FFFEB4E7AFF300806666666666660A404C
:101438007B14AE47E17A843F000801400024014054
:10144800000C0140940200201C460008B402002051
:101458002446000881F0004102E000BF83F0004309
:1014680030B54FEA41044FEA430594EA050F08BF37
:1014780090EA020F1FBF54EA000C55EA020C7FEAFB
:10148800645C7FEA655C00F0E2804FEA5454D4EB78
:101498005555B8BF6D420CDD2C4480EA020281EA42
:1014A800030382EA000083EA010180EA020281EA7A
:1014B8000303362D88BF30BD11F0004F4FEA0131CC
:1014C8004FF4801C4CEA113102D0404261EB4101DB
:1014D80013F0004F4FEA03334CEA133302D0524261
:1014E80063EB430394EA050F00F0A780A4F101041D
:1014F800D5F1200E0DDB02FA0EFC22FA05F2801857
:1015080041F1000103FA0EF2801843FA05F359413C
:101518000EE0A5F120050EF1200E012A03FA0EFCBB
:1015280028BF4CF0020C43FA05F3C01851EBE371E5
:1015380001F0004507D54FF0000EDCF1000C7EEB02
:1015480000006EEB0101B1F5801F1BD3B1F5001F40
:101558000CD349085FEA30004FEA3C0C04F101045F
:101568004FEA445212F5800F80F09A80BCF1004F88
:1015780008BF5FEA500C50F1000041EB045141EA0A
:10158800050130BD5FEA4C0C404141EB010111F40B
:10159800801FA4F10104E9D191F0000F04BF0146B6
:1015A8000020B1FA81F308BF2033A3F10B03B3F194
:1015B80020020CDA0C3208DD02F1140CC2F10C0224
:1015C80001FA0CF021FA02F10CE002F11402D8BF82
:1015D800C2F1200C01FA02F120FA0CFCDCBF41EA4E
:1015E8000C019040E41AA2BF01EB0451294330BD1D
:1015F8006FEA04041F3C1CDA0C340EDC04F11404FA
:10160800C4F1200220FA04F001FA02F340EA0300D0
:1016180021FA04F345EA030130BDC4F10C04C4F116
:10162800200220FA02F001FA04F340EA03002946F6
:1016380030BD21FA04F0294630BD94F0000F83F440
:10164800801306BF81F480110134013D4EE77FEA23
:10165800645C18BF7FEA655C29D094EA050F08BF6F
:1016680090EA020F05D054EA000C04BF1946104650
:1016780030BD91EA030F1EBF0021002030BD5FEA94
:10168800545C05D14000494128BF41F0004130BDBC
:1016980014F580043CBF01F5801130BD01F0004510
:1016A80045F0FE4141F470014FF0000030BD7FEA83
:1016B800645C1ABF194610467FEA655C1CBF0B467E
:1016C800024650EA013406BF52EA033591EA030F95
:1016D80041F4002130BD00BF90F0000F04BF00218D
:1016E800704730B54FF4806404F132044FF00005C0
:1016F8004FF0000150E700BF90F0000F04BF002139
:10170800704730B54FF4806404F1320410F000459E
:1017180048BF40424FF000013EE700BF42004FEA99
:10172800E2014FEA31014FEA02701FBF12F07F4316
:1017380093F07F4F81F06051704732F07F4208BFCD
:10174800704793F07F4F04BF41F40021704730B5D4
:101758004FF4607401F0004521F000411CE700BF20
:1017680050EA010208BF704730B54FF000050AE0A3
:1017780050EA010208BF704730B511F0004502D5A4
:10178800404261EB41014FF4806404F132045FEAA6
:10179800915C3FF4D8AE4FF003025FEADC0C18BF4F
:1017A80003325FEADC0C18BF033202EBDC02C2F141
:1017B800200300FA03FC20FA02F001FA03FE40EAD3
:1017C8000E0021FA02F11444BDE600BF70B54FF0D7
:1017D800FF0C4CF4E06C1CEA11541DBF1CEA1355B5
:1017E80094EA0C0F95EA0C0F00F0DEF82C4481EA1D
:1017F800030621EA4C5123EA4C5350EA013518BF3D
:1018080052EA033541F4801143F4801338D0A0FB29
:1018180002CE4FF00005E1FB02E506F00042E0FBD6
:1018280003E54FF00006E1FB03569CF0000F18BFDC
:101838004EF0010EA4F1FF04B6F5007F64F5407484
:1018480004D25FEA4E0E6D4146EB060642EAC62117
:1018580041EA55514FEAC52040EA5E504FEACE2E84
:10186800B4F1FD0C88BFBCF5E06F1ED8BEF1004F87
:1018780008BF5FEA500E50F1000041EB045170BD03
:1018880006F0004646EA010140EA020081EA030147
:10189800B4EB5C04C2BFD4EB0C0541EA045170BD43
:1018A80041F480114FF0000E013C00F3AB8014F1BD
:1018B800360FDEBF002001F0004170BDC4F1000406
:1018C800203C35DA0C341BDC04F11404C4F1200587
:1018D80000FA05F320FA04F001FA05F240EA0200E2
:1018E80001F0004221F0004110EBD37021FA04F618
:1018F80042EB06015EEA430E08BF20EAD37070BDD2
:10190800C4F10C04C4F1200500FA04F320FA05F030
:1019180001FA04F240EA020001F0004110EBD37032
:1019280041F100015EEA430E08BF20EAD37070BDA2
:10193800C4F1200500FA05F24EEA020E20FA04F37B
:1019480001FA05F243EA020321FA04F001F000412A
:1019580021FA04F220EA020000EBD3705EEA430E9B
:1019680008BF20EAD37070BD94F0000F0FD101F0CA
:101978000046400041EB010111F4801F08BF013C03
:10198800F7D041EA060195F0000F18BF704703F041
:101998000046520043EB030313F4801F08BF013DC8
:1019A800F7D043EA0603704794EA0C0F0CEA135584
:1019B80018BF95EA0C0F0CD050EA410618BF52EA3E
:1019C8004306D1D181EA030101F000414FF0000044
:1019D80070BD50EA410606BF1046194652EA430652
:1019E80019D094EA0C0F02D150EA013613D195EAC6
:1019F8000C0F05D152EA03361CBF104619460AD10E
:101A080081EA030101F0004141F0FE4141F4700117
:101A18004FF0000070BD41F0FE4141F4780170BD07
:101A280070B54FF0FF0C4CF4E06C1CEA11541DBF6C
:101A38001CEA135594EA0C0F95EA0C0F00F0A7F86E
:101A4800A4EB050481EA030E52EA03354FEA01319B
:101A580000F088804FEA03334FF0805545EA1313AE
:101A680043EA12634FEA022245EA111545EA106576
:101A78004FEA00260EF000419D4208BF964244F10D
:101A8800FD0404F5407402D25B084FEA3202B61A2C
:101A980065EB03055B084FEA32024FF480104FF400
:101AA800002CB6EB020E75EB030E22BFB61A754674
:101AB80040EA0C005B084FEA3202B6EB020E75EB07
:101AC800030E22BFB61A754640EA5C005B084FEA6F
:101AD8003202B6EB020E75EB030E22BFB61A75463C
:101AE80040EA9C005B084FEA3202B6EB020E75EB47
:101AF800030E22BFB61A754640EADC0055EA060E08
:101B080018D04FEA051545EA16754FEA06164FEA4A
:101B1800C30343EA52734FEAC2025FEA1C1CC0D1F6
:101B280011F4801F0BD141EA00014FF000004FF083
:101B3800004CB6E711F4801F04BF01430020B4F144
:101B4800FD0C88BFBCF5E06F3FF6AFAEB5EB030CFC
:101B580004BFB6EB020C5FEA500C50F1000041EBF9
:101B6800045170BD0EF0004E4EEA113114EB5C04C6
:101B7800C2BFD4EB0C0541EA045170BD41F4801199
:101B88004FF0000E013C90E645EA060E8DE60CEAA1
:101B9800135594EA0C0F08BF95EA0C0F3FF43BAFBE
:101BA80094EA0C0F0AD150EA01347FF434AF95EA75
:101BB8000C0F7FF425AF104619462CE795EA0C0F59
:101BC80006D152EA03353FF4FDAE1046194622E726
:101BD80050EA410618BF52EA43067FF4C5AE50EA00
:101BE80041047FF40DAF52EA43057FF4EBAE12E7F0
:101BF8004FF0FF3C06E000BF4FF0010C02E000BFD1
:101C08004FF0010C4DF804CD4FEA410C7FEA6C5CB3
:101C18004FEA430C18BF7FEA6C5C1BD001B050EA56
:101C2800410C0CBF52EA430C91EA030F02BF90EA41
:101C3800020F0020704710F1000F91EA030F58BF00
:101C4800994208BF90422CBFD8176FEAE37040F062
:101C5800010070474FEA410C7FEA6C5C02D150EA00
:101C6800013C07D14FEA430C7FEA6C5CD6D152EABB
:101C7800033CD3D05DF8040B704700BF8446104680
:101C880062468C461946634600E000BF01B5FFF77F
:101C9800B7FF002848BF10F1000F01BD4DF808ED4F
:101CA800FFF7F4FF0CBF012000205DF808FB00BF20
:101CB8004DF808EDFFF7EAFF34BF012000205DF87A
:101CC80008FB00BF4DF808EDFFF7E0FF94BF0120C7
:101CD80000205DF808FB00BF4DF808EDFFF7CEFFC8
:101CE80094BF012000205DF808FB00BF4DF808ED07
:101CF800FFF7C4FF34BF012000205DF808FB00BFD8
:101D08004FEA4102B2F1E04324BFB3F5001CDCF115
:101D1800FE5C0DD901F0004C4FEAC0024CEA50704D
:101D2800B2F1004F40EB830008BF20F0010070477C
:101D380011F0804F21D113F13872BCBF01F000407F
:101D4800704741F480114FEA5252C2F11802C2F1B1
:101D5800200C10FA0CF320FA02F018BF40F0010032
:101D68004FEAC1234FEAD32303FA0CFC40EA0C00E4
:101D780023FA02F34FEA4303CCE77FEA625307D121
:101D880050EA01331EBF4FF0FE4040F44000704758
:101D980001F0004040F0FE4040F40000704700BFF2
:101DA80080F0004002E000BF81F0004142001FBF08
:101DB8005FEA410392EA030F7FEA226C7FEA236C11
:101DC8006AD04FEA1262D2EB1363C1BFD218414006
:101DD80048404140B8BF5B42192B88BF704710F09C
:101DE800004F40F4000020F07F4018BF404211F03F
:101DF800004F41F4000121F07F4118BF494292EAA7
:101E0800030F3FD0A2F1010241FA03FC10EB0C00D2
:101E1800C3F1200301FA03F100F0004302D549425F
:101E280060EB4000B0F5000F13D3B0F1807F06D30C
:101E380040084FEA310102F10102FE2A51D2B1F104
:101E4800004F40EBC25008BF20F0010040EA0300F9
:101E58007047490040EB000010F4000FA2F10102A6
:101E6800EDD1B0FA80FCACF1080CB2EB0C0200FA30
:101E78000CF0AABF00EBC25052421843BCBFD0407E
:101E88001843704792F0000F81F4000106BF80F4F8
:101E980000000132013BB5E74FEA41037FEA226CBB
:101EA80018BF7FEA236C21D092EA030F04D092F086
:101EB800000F08BF0846704790EA010F1CBF0020BA
:101EC800704712F07F4F04D1400028BF40F0004017
:101ED800704712F100723CBF00F50000704700F037
:101EE800004343F0FE4040F4000070477FEA22625E
:101EF80016BF08467FEA23630146420206BF5FEA2F
:101F0800412390EA010F40F4800070474FF000032E
:101F180004E000BF10F0004348BF40425FEA000CF5
:101F280008BF704743F0964301464FF000001CE09D
:101F380050EA010208BF70474FF000030AE000BFF3
:101F480050EA010208BF704711F0004302D5404231
:101F580061EB41015FEA010C02BF844601460020A3
:101F680043F0B64308BFA3F18053A3F50003BCFABE
:101F78008CF2083AA3EBC25310DB01FA02FC63446B
:101F880000FA02FCC2F12002BCF1004F20FA02F272
:101F980043EB020008BF20F00100704702F1200265
:101FA80001FA02FCC2F1200250EA4C0021FA02F2C6
:101FB80043EB020008BF20EADC7070474FF0FF0CCB
:101FC8001CEAD0521EBF1CEAD15392EA0C0F93EAC6
:101FD8000C0F6FD01A4480EA010C400218BF5FEA68
:101FE80041211ED04FF0006343EA501043EA5111DB
:101FF800A0FB01310CF00040B1F5000F3EBF4900D5
:1020080041EAD3715B0040EA010062F17F02FD2AD8
:102018001DD8B3F1004F40EBC25008BF20F00100BB
:10202800704790F0000F0CF0004C08BF49024CEAD2
:10203800502040EA51207F3AC2BFD2F1FF0340EA64
:10204800C250704740F400004FF00003013A5DDCD5
:1020580012F1190FDCBF00F000407047C2F1000216
:10206800410021FA02F1C2F1200200FA02FC5FEA03
:10207800310040F1000053EA4C0308BF20EADC704D
:10208800704792F0000F00F0004C02BF400010F4BF
:10209800000F013AF9D040EA0C0093F0000F01F06C
:1020A800004C02BF490011F4000F013BF9D041EA8E
:1020B8000C018FE70CEAD15392EA0C0F18BF93EA90
:1020C8000C0F0AD030F0004C18BF31F0004CD8D1BA
:1020D80080EA010000F00040704790F0000F17BF41
:1020E80090F0004F084691F0000F91F0004F14D087
:1020F80092EA0C0F01D142020FD193EA0C0F03D1DF
:102108004B0218BF084608D180EA010000F00040E1
:1021180040F0FE4040F40000704740F0FE4040F4BC
:10212800400070474FF0FF0C1CEAD0521EBF1CEA5B
:10213800D15392EA0C0F93EA0C0F69D0A2EB030279
:1021480080EA010C49024FEA402037D04FF0805313
:1021580043EA111143EA10130CF000408B4238BFD8
:102168005B0042F17D024FF4000C8B4224BF5B1AE6
:1021780040EA0C00B3EB510F24BFA3EB510340EA34
:102188005C00B3EB910F24BFA3EB910340EA9C00E2
:10219800B3EBD10F24BFA3EBD10340EADC001B0152
:1021A80018BF5FEA1C1CE0D1FD2A3FF650AF8B42F6
:1021B80040EBC25008BF20F0010070470CF0004C03
:1021C8004CEA50207F32C2BFD2F1FF0340EAC2502E
:1021D800704740F400004FF00003013A37E792F0EF
:1021E800000F00F0004C02BF400010F4000F013A4D
:1021F800F9D040EA0C0093F0000F01F0004C02BF48
:10220800490011F4000F013BF9D041EA0C0195E7B0
:102218000CEAD15392EA0C0F08D142027FF47DAF49
:1022280093EA0C0F7FF470AF084676E793EA0C0F39
:1022380004D14B023FF44CAF08466EE730F0004C37
:1022480018BF31F0004CCAD130F000427FF45CAFC7
:1022580031F000437FF43CAF5FE700BF014B1868E3
:10226800704700BF34000020002B2DE9F0471E46C0
:10227800BBBF03F100431E4600232D2388B0149FE3
:10228800144627F02007129A462F109DDDF84CA01F
:10229800137004D0452F00D10135022300E0032339
:1022A80007AA049206AACDE902A2CDE90035224682
:1022B800334600F005FD472F804602D1119BDB070E
:1022C80022D5462F08EB050911D198F80030302B9C
:1022D8000AD10022002320463146FFF7DFFC18B957
:1022E800C5F10105CAF80050DAF800309944002217
:1022F800002320463146FFF7D1FC08B1CDF81C90E9
:102308003022079B4B4508D34046079B159AA3EB01
:102318000803136008B0BDE8F087591C07911A70CC
:10232800EFE7F7B50029B6BF2D232B23494209292A
:102338000270437022DD0DF107031F460A2691FB48
:10234800F6F206FB1214632904F1300403F1FF3599
:1023580003F8014C0ADC303205F8012C023B821CE0
:10236800BB42144605D3201A03B0F0BD2B461146D4
:10237800E5E713F8011B02F8011BF1E730231944C4
:102388008370041DC170EEE72DE9F04F91B00C4643
:102398001A9F93461E46054601F042FA03681846FE
:1023A800099300F0BFFB00230E933B680A900733A4
:1023B80023F0070303F1080294F81880D4F800A06A
:1023C8003A60D3E90023C4E91223D4E9127929F049
:1023D80000430B934FF0FF32A84B38460B9901F09E
:1023E800B3FF68BB4FF0FF32A44B38460B99FFF799
:1023F80069FC28BB0022002338464946FFF758FCF1
:1024080010B12D2384F843309D4F9E4BB8F1470FF0
:1024180088BF1F4603234FF0000923612AF00403F5
:10242800236000965B460FAA2146284600F0CEF9A5
:10243800013040F093804FF0FF3011B0BDE8F08FCD
:102448003A464B463846494601F07EFF60B10022C5
:10245800002338464946FFF72BFC10B12D2384F89A
:102468004330894F894BD1E7636808F0DF015A1C74
:1024780042D106236360002206920EAACDE90482A7
:102488000DAA4AF4806303920DF13302CDE90132BB
:10249800236063683A46009328464B460B91FFF742
:1024A800E3FE0B99074647290D9908D1C81C02DBA2
:1024B8006368994240DDA8F102085FFA88F8B8F12C
:1024C800650F1FD80139424604F150000D91FFF7FE
:1024D80028FF0E9A81461318012A236102DC22681C
:1024E800D20701D5013323619DF83330002B98D0F2
:1024F8002D2384F8433094E74729BCD1002BBAD167
:102508000123B7E7B8F1660F18D1002963680BDD1E
:10251800216113B92268D00702D501330B44236126
:10252800A1654FF00009DFE713B92268D20701D58A
:102538000233F4E70123F2E74FF067080E9B994254
:1025480005DB23682161D807EAD54B1CE7E700299A
:10255800CCBF0122C1F102021344E0E723685A0507
:1025680007D423693A4659462846B047013029D14D
:1025780061E7B8F1650F40F2D880D4E91201002272
:102588000023FFF78BFB88B30123414A59462846AD
:10259800B04701303FF44FAFDDE90D239A4202DB2B
:1025A8002368D8070ED5DDE9092359462846B047E0
:1025B80001303FF440AF002704F11A080E9B013B9D
:1025C800BB4209DC23689F0700F1FB80E0680F9B92
:1025D8009842B8BF184630E7012342465946284674
:1025E800B04701303FF427AF0137E7E70D9B002BD9
:1025F8002BDC0123264A59462846B04701303FF4D0
:102608001AAFDDE90D23134302D12368D907D9D5C1
:10261800DDE9092359462846B04701303FF40BAF9E
:102628004FF0000804F11A090D9B5B42434501DC99
:102638000E9B97E701234A4659462846B047013082
:102648003FF4F9AE08F10108EEE70E9AA36D9A423D
:10265800A8BF1A46002A904607DD134659463A464F
:102668002846B04701303FF4E6AE04F11A034FF0B4
:10267800000A28EAE8780B9316E000BFFFFFEF7F17
:102688002C46000830460008344600083846000842
:102698003C46000801230B9A59462846B0470130AA
:1026A8003FF4C9AE0AF1010AD4F85890A9EB08031F
:1026B8005345EFDCDDE90D239A421ADB2368DA077C
:1026C80017D4DDE90D2391451BDBA3EB0908B8F10D
:1026D800000F08DD434607EB090259462846B04774
:1026E80001303FF4A8AE002728EAE87804F11A0977
:1026F80013E0DDE9092359462846B0470130E0D107
:1027080099E6A3EB0208E2E701234A465946284620
:10271800B04701303FF48FAE0137DDE90D239B1A36
:10272800A3EB0803BB42EFDC4CE70E9A012A01DC5D
:10273800DB0734D501233A4659462846B0470130CD
:102748003FF479AEDDE9092359462846B047013000
:102758003FF471AED4E9120100220023FFF79EFA7C
:10276800C8B90E9B7A1C013B59462846B047013030
:102778000DD160E60123424659462846B04701304C
:102788003FF459AE01370E9B013BBB42F2DC4B468E
:1027980004F15002E7E6002704F11A08F3E70123E1
:1027A8003A46E1E70123424659462846B0470130F8
:1027B8003FF441AE0137E3680F9A9B1ABB42F1DC44
:1027C80004E7002704F11908F5E700BF2DE9F047F1
:1027D80091461F468A680B6906469342B8BF13465E
:1027E800C9F8003091F843200C46DDF8208012B17A
:1027F8000133C9F800302368990642BFD9F8003080
:102808000233C9F80030256815F0060507D104F130
:10281800190AE368D9F800209B1AAB4229DC94F81E
:1028280043302268003318BF012392062ED404F1E6
:10283800430239463046C047013021D02368E56855
:1028480003F00603042B18BF0025D9F800204FF029
:10285800000908BFAD1AA368226908BF25EAE57513
:102868009342C4BF9B1AED181A344D451AD1002063
:1028780008E00123524639463046C047013003D1AB
:102888004FF0FF30BDE8F0870135C2E73020E1188E
:1028980081F843005A1C94F845102244023382F808
:1028A8004310C4E70123224639463046C047013069
:1028B800E6D009F10109D8E72DE9F04306460C46B0
:1028C80001F14300097E85B06E29984617460C9B96
:1028D80000F0BB8024D8632939D00AD8002900F039
:1028E800C480582900F0928004F1420584F842100F
:1028F80035E0642901D06929F6D125681A6815F0F0
:10290800800F02F104012CD012681960002A03DA42
:102918002D23524284F84330DFF8C0C10A233FE038
:10292800732900F0A68008D86F2921D07029DBD13F
:10293800226842F02002226003E0752918D0782925
:10294800D2D17822DFF898C184F8452062E01A686D
:1029580004F14205111D1960136884F842300123FF
:1029680094E0126815F0400F196018BF12B2CDE755
:10297800D4F800C01A681CF0800F02F104051D602D
:1029880001D0126803E01CF0400FFAD012886F29BA
:102998000CBF08230A23DFF844C1002184F8431040
:1029A8006568002DA8BF2168A560A4BF21F00401B7
:1029B80021600AB9002D46D00546B2FBF3F103FBAE
:1029C800112E1CF80EE0934205F801ED39D9082BB9
:1029D8000BD12368DA0708D5236962689A42DEBFFB
:1029E800302305F8013C05F1FF35401B2061CDF887
:1029F80000803B4603AA21463046FFF7E7FE013038
:102A080049D14FF0FF3005B0BDE8F083DFF8CCC006
:102A180084F845101D68216855F8042B1D600D06C3
:102A28000BD5CD0744BF41F0200121601AB92368B6
:102A380023F0200323601023AFE74B0648BF92B270
:102A4800EFE70A46B9E70546C1E71A68D4F800C0B7
:102A5800151D61691CF0800F1D60136801D0196095
:102A680003E01CF0400FFAD01980002305462361CB
:102A7800BDE71A68111D19601568002162682846AB
:102A880000F0DAFE08B1401B606063682361002330
:102A980084F84330ABE723692A4639463046C047B5
:102AA8000130AED023689B0713D4E068039B98429B
:102AB800B8BF1846A7E701234A4639463046C047FB
:102AC80001309ED00135E368039A9B1AAB42F2DCD1
:102AD800EBE7002504F11909F5E700BF3E460008B9
:102AE8004F4600080EB46FF0004100B59CB01DAB16
:102AF80002900690079104910848094953F8042B5D
:102B08000591006802A9019301F098FA0022029B3E
:102B18001A701CB05DF804EB03B070473400002055
:102B28000802FFFF034613F8012B002AFBD1181AED
:102B38000138704730B5141E05469BB0184605DAB3
:102B48008B234FF0FF302B601BB030BD4FF4027366
:102B5800ADF80C300CBF234604F1FF330293059304
:102B68004FF6FF7300910491ADF80E3002461E9B9C
:102B78006946284601F062FA431CBCBF8B232B60D0
:102B8800002CE1D00022009B1A70DDE707B5009306
:102B980013460A46014603480068FFF7CBFF03B017
:102BA8005DF804FB340000202DE9F74F03690C6938
:102BB8008046A342C0F28280013CA00008F11405BF
:102BC80001F114072B18019357F8243055F82420E5
:102BD80001339A4207EB0009B2FBF3F632D34FF008
:102BE800000ABC46AE46D3465CF8042B93B206FBFB
:102BF80003A3120C4FEA134A06FB02A29BB2ABEBEB
:102C08000303DEF800B04FEA124A1FFA8BFB5B445D
:102C18001FFA82FBDEF80020E145CBEB124202EB03
:102C280023429BB243EA02434FEA224B4EF8043B4D
:102C3800DAD22B5833B9019B043B9D421A4631D353
:102C4800C8F81040404601F022F8002826DB284644
:102C58004FF0000C013657F8041BD0F800E08BB297
:102C6800ACEB03031FFA8EF213440A0CC2EB1E42AC
:102C780002EB23429BB243EA0243B9454FEA224C96
:102C880040F8043BE7D255F8242005EB84032AB921
:102C9800043B9D421A460BD3C8F81040304603B097
:102CA800BDE8F08F1268043B002AC9D1013CC4E793
:102CB8001268043B002AEFD1013CEAE70020EEE766
:102CC8002DE9F04F476A97B080461D46239E9246ED
:102CD8009B4647B9102000F0A7FDC0E90177C8F866
:102CE80024000760C760D8F82430196859B15A68B9
:102CF800012393404A608B60404600F0EDFD0022BE
:102D0800D8F824301A602B1EADBF0023012223F00F
:102D1800004B3360AE4BB8BF326033EA0B035C46FE
:102D28001AD142F20F73229A1360CBF3130353EABA
:102D38000A0300F05F85249B53B9A64B21E0A64BFC
:102D480005930833249A1360059817B0BDE8F08FEF
:102D5800A04B05930333F5E700220023504659465C
:102D6800CDE90CABFEF79AFF074660B10123229A22
:102D78001360249B002B00F03A85984B249A13602B
:102D8800013B0593E0E714AB019315AB0093404674
:102D9800DDE90C2300F0F3FFCBF30A560390002E75
:102DA80000F08180DDE90C450D9BA6F2FF36C3F3E8
:102DB800130343F07F5545F4401512970022884BC2
:102DC80020462946FEF74AFB7BA3D3E90023FEF7FA
:102DD800FDFC7BA3D3E90023FEF742FB0446304603
:102DE8000D46FEF789FC78A3D3E90023FEF7EEFC35
:102DF80002460B4620462946FEF732FB04460D469E
:102E080001F0B8FA00228146002320462946FEF741
:102E18004FFF48B14846FEF76FFC22462B46FEF7A7
:102E28003DFF08B909F1FF39B9F1160F58D8DDE9A6
:102E38000C016C4B03EBC903D3E90023FEF738FF01
:102E480000284FD0002309F1FF391193149B9E1BD2
:102E5800731E099345BFC6F101030893002300239D
:102E680054BF08930993B9F1000F3DDB099BCDF8D6
:102E780040904B44099300230A93209B092B00F2AE
:102E88008D80052BC4BF043B2093209BC8BF002422
:102E9800A3F10203D8BF0124032B00F2A780DFE8C7
:102EA80003F02D3A387BDDE914631E4406F2324004
:102EB8002028C1BFC0F14000844006F212402AFA1F
:102EC80000F0D6BFC0F1200020430AFA00F0FEF758
:102ED80003FC01230446A1F1F875013E12936DE746
:102EE8000123B2E71190B1E7089BA3EB090308930C
:102EF800C9F100030A9300231093BEE700230B9344
:102F0800219B002B75DC01231A460693049321921A
:102F18000BE00123F3E700230B93219B4B4406931B
:102F28000133012B0493B8BF01230022D8F82450A1
:102F38006A60042202F11400984269685DD940462B
:102F480000F096FCD8F8243028601B680593049B91
:102F58000E2B00F2D580002C00F0D280B9F1000FC2
:102F680069DD204A09F00F0302EBC303D3E90034FB
:102F7800CDE90E344FEA2914E0065AD5DDE90C01F3
:102F8800194B0327D3E90823FEF74AFD82468B46EF
:102F980004F00F04144D41E00123BDE70124002390
:102FA8000B9420934FF0FF330022069304931223CF
:102FB800ADE700BFAFF3008061436F63A787D23FDF
:102FC800B3C8608B288AC63FFB799F501344D33F10
:102FD8000000F07F69460008604600083D4600088A
:102FE8000000F83F984600087046000801230B933C
:102FF800D8E7219B0693049397E701316960520053
:1030080098E7E10708D5DDE90E01D5E90023FEF7C9
:10301800DDFBCDE90E01013764100835002CF0D135
:10302800DDE90E2350465946FEF7FAFC82468B46E8
:103038001AE00227AEE700F09D80DDE90C01C9F136
:1030480000049B4B04F00F0203EBC203D3E90023F7
:10305800FEF7BCFB022782468B460023954D2411C0
:10306800002C7CD1002BE1D1119B002B00F0848037
:103078000022914B504659465D46FEF719FE00283E
:103088007AD0049B002B77D0069B002B36DD504668
:1030980059460022894BFEF799FB82468B46069CCF
:1030A80009F1FF3601373846FEF726FB52465B46E4
:1030B800FEF78CFB0022824BFEF7D2F9A1F1507586
:1030C800CDE90E010F95002C59D100227D4B5046B9
:1030D8005946FEF7C3F90E9A2B4682468B46FEF7F1
:1030E80005FE002840F086820E9A05F100435046FE
:1030F8005946FEF7DDFD002840F07A82DDE90CAB89
:10310800159B002BC0F24B81B9F10E0F00F34781DC
:10311800674B03EBC903D3E90034CDE90634219B9F
:10312800002B80F2D380049B002B00F3CF8040F06B
:103138005E82DDE906010022624BFEF747FB52463C
:103148005B46FEF7C9FD049C2646002840F03782FE
:103158003123059D09F1010905F8013B33E2E20736
:1031680005D5D5E90023FEF731FB012301376410AB
:10317800083575E7022777E74E46049C93E74C4BE2
:1031880003EBC40353E90201059B1C440B9B002B72
:1031980044D002460B4600204B49FEF741FCDDE9CE
:1031A8000E23FEF75BF9CDE90E01059D5946504601
:1031B80001F0E0F80746FEF79FFA02460B46504634
:1031C8005946FEF74BF9DDE90E23303705F8017B48
:1031D80082468B46FEF76CFD00285FD152465B465F
:1031E80000203549FEF73AF9DDE90E23FEF760FDC8
:1031F800002840F0B580A54280D0DDE90E0100220C
:103208002E4BFEF7E3FA0022CDE90E012B4B504678
:103218005946FEF7DBFA82468B46C7E7DDE90E23FF
:10322800FEF7D4FA2546CDE90E01059F59465046CA
:1032380001F0A0F81390FEF75FFA02460B465046DD
:103248005946FEF70BF9139B8246303307F8013BCA
:10325800A7428B464FF0000224D1DDE90E011A4B3C
:10326800FEF7FEF802460B4650465946FEF73EFD6D
:10327800002875D1DDE90E2300201349FEF7EEF88A
:1032880002460B4650465946FEF712FD00283FF409
:1032980035AF15F8013C6A1E302B01D0B1464EE01F
:1032A8001546F6E7054BFEF791FA82468B46BDE7D1
:1032B80098460008704600080000F03F00002440CF
:1032C80000001C40000014400000E03F56464FF04C
:1032D800000A5F46059DDFF844B5DDE90623304660
:1032E8003946FEF79DFB01F045F80446FEF704FA5F
:1032F800DDE90623FEF76AFA02460B4630463946F0
:10330800FEF7ACF804F1300605F8016B059E049F42
:10331800AE1BB74202460B4634D1FEF7A1F8DDE9F1
:10332800062306460F46FEF7E1FCC0B9DDE9062391
:1033380030463946FEF7B2FC08B1E3070FD40399CB
:10334800404600F0C9FA0023229A2B7009F10103C4
:103358001360249B002B3FF4F7AC1D60F4E44E4649
:1033680015F8012C6B1E392A06D1059A9A4207D105
:103378003022059901360A701A7801321A708DE7E1
:103388001D46EDE752465B46FEF720FA0022002371
:1033980006460F46FEF782FC00289ED0CFE70B9A20
:1033A800002A00F0CC80209A012A00F3AE80129AFD
:1033B800002A00F0A68003F233430A9C089D089A6D
:1033C80001211A440892099A40461A44099200F0C9
:1033D80025FB0646002D0CDD099B002B09DDAB42C1
:1033E800A8BF2B46089AED1AD21A0892099AD31A3E
:1033F80009930A9BF3B10B9B002B00F0A480002CCF
:1034080010DD31462246404600F0A0FB039A0146F3
:103418000646404600F00BFB07460399404600F07D
:103428005BFA03970A9B1A1B04D00399404600F0E5
:103438008DFB03900121404600F0F0FA109B0446F2
:10344800002B40F382801A460146404600F07EFB7E
:10345800209B0446012B7BDD0027236904EB8303B3
:10346800186900F08BFAC0F12000099B184410F08D
:103478001F0000F08B80C0F12003042B40F38480F0
:10348800C0F11C00089B054403440893099B0344AE
:103498000993089B002B05DD1A460399404600F066
:1034A800A3FB0390099B002B05DD21461A464046E5
:1034B80000F09AFB0446119B002B69D02146039823
:1034C80000F0E5FB002863DA00230A22039940464E
:1034D80000F019FA0B9B09F1FF390390002B00F05B
:1034E8009081002331460A22404600F00CFA069BE0
:1034F8000646002B00F38780209B022B40F3838035
:103508004EE0149BC3F1360357E7049B5C1E0A9BED
:10351800A342B7BF0A9B1C1BE21A109BBEBF0A94AA
:103528009B181093049BB8BF0024002BBBBF089BBB
:10353800049A089D9D1AACBF049B00233FE70A9C90
:10354800089D0B9E46E70A9A6FE7209B012B17DC24
:10355800BAF1000F14D1CBF313039BB92BF000473A
:103568003F0D3F0537B10127089B01330893099B9D
:1035780001330993109B002B7FF46FAF012074E790
:103588000027F7E75746F5E783D018461C3079E758
:10359800049B002B31DC209B022B2EDD049B069321
:1035A800069B63B921460522404600F0ACF9014666
:1035B8000446039800F06BFB00283FF7C9AD219B38
:1035C800059D6FEA030900272146404600F084F96B
:1035D800002E3FF4B4AE2FB1B74203D0394640466F
:1035E80000F07AF93146404600F076F9A7E6002463
:1035F8002646E4E7B1462646AAE50B9B002B00F0D9
:10360800BB80049B0693002D05DD31462A464046C3
:1036180000F0EAFA0646002F52D07168404600F0E2
:1036280027F90546326906F10C01023292000C3086
:1036380000F010F901222946404600F0D5FA374635
:103648000646059B01330493DDE9052313440A93D9
:103658000AF001030993049B2146039803F1FF3AFA
:10366800FFF7A2FA3946069000F1300B039800F0F4
:103678000EFB324608902146404600F022FBC26805
:103688000546FAB90146039800F001FB02462946AF
:1036980040460B9200F020F9209B0B9A049D43EAC8
:1036A8000201099B0B430FD1BBF1390F28D0089BAE
:1036B800002B02DD069B03F1310B8AF800B083E78B
:1036C8003046BCE70122E2E7089B002B04DB209987
:1036D8000B4309990B431DD1002AEEDD0122039902
:1036E800404600F081FA2146039000F0D0FA002805
:1036F80003DCE2D11BF0010FDFD0BBF1390FD9D1C8
:1037080039238AF8003015F8013C6A1E392B63D03A
:10371800013368E0002A07DDBBF1390FF0D00BF167
:1037280001038AF800304FE7049B0A9A03F801BCAA
:1037380093423AD000230A220399404600F0E3F866
:10374800B74203904FF000034FF00A023946404653
:1037580007D100F0D8F807460646049B01330493C6
:1037680079E700F0D0F83146074600230A224046A0
:1037780000F0C9F80646F0E7049B0693059D21462C
:103788000398FFF711FA059B00F1300B05F801BB10
:10379800EA1A069B934207DD00230A220399404652
:1037A80000F0B1F80390EAE70027012203994046A8
:1037B80000F01AFA2146039000F069FA0028A2DC0A
:1037C80002D11BF0010F9ED115F8013C6A1E302B67
:1037D8007FF4FAAE1546F7E7059B934205D13123EE
:1037E800059A09F101091370EEE615468BE7094BB6
:1037F800FFF7C7BA249B002B7FF4A1AA064BFFF75B
:10380800C0BA069B002BB9DC209B022B3FF7C8AE41
:10381800B4E700BF3C4600086046000800002440AA
:103828000048704788010020024B0146186800F0E4
:103838004FBB00BF3400002010B5C9B2024490420B
:10384800034601D1002303E01C7801308C42F6D1F5
:10385800184610BD0A44914200F1FF3300D1704769
:1038680010B511F8014B914203F8014FF9D110BD81
:1038780070B5456A04460E463DB91020FFF7D4FFDF
:10388800C0E9015560620560C560656AEB6883B18F
:10389800636ADB6853F82600B8B9012101FA06F516
:1038A8006A1D9200204600F0B8FA60B1C0E90165CF
:1038B8000EE021220421204600F0AFFA636AE86096
:1038C800DB68002BE4D1002070BD026843F8262095
:1038D8000023C0E90333F7E770B5446A06460D468E
:1038E8003CB91020FFF7A0FFC0E9014470620460F2
:1038F800C4603DB1736A6A68DB6853F822102960B6
:1039080043F8225070BD2DE9F0411F4606460C468B
:1039180000230D6901F1140CDCF80000013381B2B9
:1039280002FB0171000C0F0C02FB007089B201EB65
:1039380000419D424FEA10474CF8041BECDCD7B11C
:10394800A368AB4212DC616830460131FFF790FF93
:103958008046226904F10C01023292000C30FFF714
:1039680079FF21463046FFF7B7FF444604EB85034D
:1039780001355F6125612046BDE8F081020C120423
:103988000346CAB90304102013F07F4F04BF1B027B
:10399800083013F0704F04BF1B01043013F0404F80
:1039A80004BF9B000230002B05DB13F0804F00F1B1
:1039B800010008BF202070470020E5E703680146A2
:1039C80013F007020BD0DA0724D4980749BF5B0825
:1039D8009B0801200B605CBF0B600220704798B207
:1039E800B0B910201B0C13F0FF0F04BF1B0A0830DE
:1039F8001A0704BF1B0904309A0704BF9B0802304A
:103A0800DA0703D45B0800F1010005D00B607047AA
:103A18001046E8E7002070472020704710B50C4694
:103A28000121FFF725FF01224461026110BD2DE944
:103A3800F74F90460A69D8F810300C469A42BEBF34
:103A48000B46444698462769D8F81090A3686168E1
:103A580007EB0906B342B8BF0131FFF709FF00F1D0
:103A680014052B46002205EB860E734516D304F188
:103A7800140308F1140203EB870702EB8903009390
:103A8800009B019293420CD8002E03DD5EF8043DA2
:103A9800002B59D0066103B0BDE8F08F43F8042B22
:103AA800E3E7B2F800A0BAF1000F23D0AC464FF01C
:103AB800000804F1140959F8041BDCF800B08BB2B3
:103AC8001FFA8BFB0AFB03B34FEA114BDCF800101B
:103AD80043444FEA11480AFB0B8101EB13419BB2A7
:103AE80043EA01434F454FEA11484CF8043BE2D8FA
:103AF800CCF80080019B0432B3F80290B9F1000FB2
:103B080020D0AC464FF0000A2B6804F11408B8F82E
:103B18000010BCF802B09BB209FB01B18A4443EA29
:103B28000A434CF8043B58F8043BBCF800101B0C43
:103B380009FB0313474503EB1A434FEA134AE6D838
:103B4800CCF8003004359BE7013E9DE72DE9F843AA
:103B5800154612F0030206460F4607D0214C013ADB
:103B6800002354F82220FFF7CEFE0746AD1035D0CB
:103B7800746A3CB91020FFF757FEC0E9014470622F
:103B88000460C460D6F82480D8F808404CB940F2E4
:103B980071213046FFF742FF00230446C8F80800A9
:103BA80003604FF00008EB070AD539462246304635
:103BB800FFF73DFF814639463046FFF78DFE4F46F9
:103BC8006D100BD0206838B9224621463046FFF7E1
:103BD8002EFF2060C0F800800446E4E73846BDE8C0
:103BE800F88300BF604700082DE9F0470C460746F8
:103BF800164623694FEA621A0AEB03094968A36863
:103C080009F10105AB4233DB3846FFF731FE0023EB
:103C1800804600F1140100F11002184653452ADBD2
:103C280020692AEAEA7A04F1140316F01F0201EB6C
:103C38008A0103EB800C22D00020C2F1200E1E68FE
:103C48009640304341F8040B53F8040B9C4520FA86
:103C58000EF0F4D8086008B109F10205013D3846B4
:103C6800C8F810502146FFF737FE4046BDE8F087F8
:103C780001315B00C6E742F8040F0133CEE704398F
:103C880053F8042B9C4541F8042FF9D8E6E703695B
:103C98000A6930B59B1A0CD192001430143184187B
:103CA800114454F8045D51F8042D954203D005D30E
:103CB8000123184630BDA042F3D3FAE74FF0FF3393
:103CC800F7E72DE9F0470D46074611462846144602
:103CD800FFF7DDFF061E08D131463846FFF7C8FD5D
:103CE8000123C0E90436BDE8F087A4BF23462C466B
:103CF80038466168A6BF1D4600260126FFF7B8FDB5
:103D08004FF0000EC6602B69266904F1140205F114
:103D1800140902EB860709EB830800F1140152F835
:103D280004AB59F8045B1FFA8AF37344ACB21B1B4B
:103D38002C0CC4EB1A4404EB23449BB24FEA244EE8
:103D4800C84543EA0444944641F8044BE7D8BC45C7
:103D580004D351F8043D83B10661C4E75CF8044B11
:103D6800A2B27244131403EB144392B242EA034220
:103D78004FEA234E41F8042BE9E7013EE9E72DE934
:103D8800F3411C46DDE9086501219046FFF770FD07
:103D9800C4F31302C4F30A5407462CBB0192B8F1CA
:103DA800000226D068460092FFF708FE0099F0B19D
:103DB800019AC0F1200302FA03F30B43C2407B616E
:103DC8000192019B002B14BF02210121BB613961C3
:103DD800C4B1A4F2334404443460C0F1350028600F
:103DE800384602B0BDE8F08142F48012D6E7796126
:103DF800E7E701A8FFF7E2FD0121019B39617B613B
:103E08002030E5E7A0F2324007EB81033060186903
:103E1800FFF7B4FDC0EB4110E1E738B502FB01F450
:103E2800214600F055F8054618B12246002100F059
:103E380039FA284638BD000038B50546002943D070
:103E480051F8043C0C1F002BB8BFE41800F032FAFC
:103E58001E4A1368104633B9636014602846BDE8EB
:103E6800384000F02DBAA3420BD92168621893425A
:103E780001BF1A685B685218226063600460EDE74E
:103E880013465A680AB1A242FAD919685818A042CA
:103E98000BD120680144581882421960DED110689D
:103EA8005268014419605A60D8E702D90C232B6084
:103EB800D4E7206821188A4201BF1168526809189E
:103EC800216062605C60C9E738BD00BFB8020020AD
:103ED800F8B5CD1C25F0030508350C2D38BF0C2589
:103EE800002D064601DBA94203D90C2333600020CC
:103EF800F8BD00F0DFF921490A6814469CB9204F43
:103F08003B6823B92146304600F090F938602946CD
:103F1800304600F08BF9431C23D10C233046336024
:103F280000F0CEF9E3E723685B1B17D40B2B03D90A
:103F380023601C44256004E06368A2420CBF0B6048
:103F48005360304600F0BCF904F10B00231D20F04B
:103F58000700C21ACCD01B1AA350C9E722466468CE
:103F6800CCE7C41C24F00304A042E3D0211A304655
:103F780000F05CF90130DDD1CFE700BFB8020020C6
:103F8800BC0200202DE9F0478E6882469E420C460E
:103F98009146984638D8B1F80CC01CF4906F31D0CF
:103FA80062692568096902EB42026F1A02EBD27254
:103FB800013355103B449D4238BF1D461CF4806FA9
:103FC80030D02946FFF784FF064650B90C234FF03E
:103FD800FF30CAF80030A38943F04003A381BDE84D
:103FE800F0873A462169FFF735FCA38923F49063EB
:103FF80043F08003A38126613E44266046466561FE
:10400800ED1BA560464500D946463246494620681C
:1040180000F02EF9A36800209B1BA36023681E44B0
:104028002660DCE72A4600F051F906460028E2D16E
:1040380021695046FFF700FFC8E700002DE9F04F5F
:104048001E468B899DB01B0607460D4614460ED5A5
:104058000B6963B94021FFF73BFF2860286120B94D
:104068000C233B604FF0FF30C9E040236B61002315
:10407800099320238DF8293030234FF0010ADFF807
:1040880098918DF82A30039623461E4613F8012B83
:104098000AB1252AF9D1B6EB040B0BD05B462246B0
:1040A80029463846FFF76EFF013000F0A380099BD0
:1040B8005B4409933378002B00F09C8000234FF079
:1040C800FF32CDE905230136049307938DF8533069
:1040D8001A933446052214F8011B4F48FFF7ACFB2E
:1040E800049BC0B9D90644BF20228DF853201A0773
:1040F80044BF2B228DF8532032782A2A13D0344615
:1041080000200A26079A214611F8013B303B092B6B
:104118004BD970B914E0A0EB09000AFA00F0184373
:1041280004902646D5E7039A111D12680391002AC8
:1041380001DB079204E0524243F002030792049322
:1041480023782E2B0CD163782A2B33D1039B02348E
:104158001A1D1B680392002BB8BF4FF0FF3305935D
:104168002E4E032221783046FFF766FB38B14023F4
:10417800801B03FA00F0049B01340343049314F8F2
:10418800011B062226488DF82810FFF755FB00284A
:1041980038D0244B13BB039B073323F007030833A2
:1041A8000393099B434409936EE706FB02320120FF
:1041B8000C46A8E700230A26194601340593204631
:1041C80010F8012B303A092A03D9002BC8D00591E1
:1041D800C6E706FB012101230446F0E703AB009381
:1041E8002A46114B04A93846FEF7CEF8B0F1FF3F36
:1041F8008046D6D1AB895B063FF534AF09981DB030
:10420800BDE8F08F03AB00932A46074B04A9384654
:10421800FEF752FBEAE700BF6C4700087247000848
:1042280076470008912300088D3F000838B5002321
:10423800054C054608462360FCF7AAFD431C02D13D
:10424800236803B12B6038BDC002002082B001B9D9
:1042580001A942B14BB113780B601278101C18BF3A
:10426800012002B070471046FBE76FF00100F8E745
:10427800884210B501EB020302D983421C4607D8D5
:10428800421E994208D011F8014B02F8014FF8E795
:1042980083189A1A9A4200D110BD14F8011D03F828
:1042A800011DF7E703460244934200D1704703F823
:1042B800011BF9E7014800F03CB800BFC802002024
:1042C800014800F037B800BFC8020020F8B507461B
:1042D80014460E4621B91146BDE8F840FFF7F8BD6F
:1042E80022B9FFF7A9FD25462846F8BD00F023F8B6
:1042F800A0420FD221463846FFF7EAFD05460028BE
:10430800F2D031462246FFF7A5FA31463846FFF784
:1043180093FDE9E73546E7E749B1FF2A8BBF8A23D2
:104328000A700360012088BF4FF0FF3070470846CD
:1043380070477047704751F8043C181F002BBCBFEA
:104348000B58C018704700004FEA410C7FEA6C5CBC
:1043580002D150EA013C0AD14FEA430C7FEA6C5C77
:1043680002D152EA033C02D14FF0000070474FF0EF
:10437800010070474FEA410212F5001215D211D51B
:104388006FF47873B3EB625212D94FEAC12343F04A
:10439800004343EA505311F0004F23FA02F018BFCC
:1043A800404270474FF00000704750EA013005D195
:1043B80011F0004008BF6FF0004070474FF0000058
:1043C800704700BF2E2E2F73797374656D2F73722B
:1043D800632F73746D333266312D73746470657234
:1043E8006970682F73746D3332663130785F616439
:1043F800632E63002E2E2F73797374656D2F73727D
:10440800632F73746D333266312D73746470657203
:104418006970682F73746D3332663130785F6770F6
:10442800696F2E63000000002E2E2F737973746558
:104438006D2F7372632F73746D333266312D7374FD
:10444800647065726970682F73746D3332663130C9
:10445800785F7263632E63002E2E2F7379737465F1
:104468006D2F7372632F73746D333266312D7374CD
:10447800647065726970682F73746D333266313099
:10448800785F75736172742E6300000061626F72E9
:104498007428292C2065786974696E672E2E2E0081
:1044A8006173736572745F706172616D282920662B
:1044B80061696C65643A2066696C652022257322FF
:1044C8002C206C696E652025640A000053746163B2
:1044D8006B206672616D653A0A0000002052302038
:1044E8003D2020253038580A000000002052312095
:1044F8003D2020253038580A000000002052322084
:104508003D2020253038580A000000002052332072
:104518003D2020253038580A000000002052313252
:10452800203D20253038580A00000000204C522039
:104538003D2020253038580A000000002050432034
:104548003D2020253038580A0000000020505352E2
:10455800203D20253038580A000000004653522FCD
:104568004641523A0A0000002043465352203D205B
:1045780020253038580A00002048465352203D2054
:1045880020253038580A00002044465352203D2048
:1045980020253038580A00002041465352203D203B
:1045A80020253038580A0000204D4D464152203D04
:1045B80020253038580A00002042464152203D202C
:1045C80020253038580A00004D6973630A0000003E
:1045D800204C522F4558435F52455455524E3D206A
:1045E800253038580A0000005B48617264466175DE
:1045F8006C745D0A000000005B4275734661756C5F
:10460800745D0A005B55736167654661756C745D1E
:104618000A00000025640D0A00000000252E3166FE
:104628000D0A0000494E4600696E66004E414E0074
:104638006E616E00300030313233343536373839F8
:1046480041424344454600303132333435363738F9
:104658003961626364656600496E66696E6974797A
:10466800004E614E000000000080E03779C34143EE
:10467800176E05B5B5B89346F5F93FE9034F384DC0
:10468800321D30F94877825A3CBF737FDD4F15756C
:10469800000000000000F03F00000000000024407F
:1046A80000000000000059400000000000408F405A
:1046B800000000000088C34000000000006AF840C5
:1046C8000000000080842E4100000000D0126341E9
:1046D8000000000084D797410000000065CDCD415F
:1046E800000000205FA00242000000E87648374240
:1046F800000000A2941A6D42000040E59C30A242DE
:104708000000901EC4BCD64200003426F56B0C4352
:104718000080E03779C3414300A0D88557347643F9
:1047280000C84E676DC1AB43003D9160E458E1435A
:10473800408CB5781DAF154450EFE2D6E41A4B44CF
:1047480092D54D06CFF08044F64AE1C7022DB54414
:10475800B49DD9794378EA440500000019000000A7
:104768007D000000232D302B2000686C4C0065660E
:1047780067454647004300504F534958002E0000F4
:1047880020202020202020202028282828282020F9
:104798002020202020202020202020202020202011
:1047A8008810101010101010101010101010101089
:1047B8000404040404040404040410101010101069
:1047C8001041414141414101010101010101010142
:1047D8000101010101010101010101101010101076
:1047E8001042424242424202020202020202020213
:1047F800020202020202020202020210101010203B
:1048080000000000000000000000000000000000A0
:104818000000000000000000000000000000000090
:104828000000000000000000000000000000000080
:104838000000000000000000000000000000000070
:104848000000000000000000000000000000000060
:104858000000000000000000000000000000000050
:104868000000000000000000000000000000000040
:104878000000000000000000000000000000000030
:1048880078563412020406080000000001020304EE
:1048980001020304060708091002002000000000B6
:1048A80000000000000000000102030406070809D8
:1048B80000A24A04380000200000000000000000A8
:1048C80000000000000000000000000000000000E0
:1048D80000000000000000000000000000000000D0
:1048E80000000000000000000000000000000000C0
:1048F80000000000000000000000000000000000B0
:10490800000000000000000000000000000000009F
:10491800000000000000000043000000000000004C
:10492800000000000000000000000000000000007F
:10493800000000000000000043000000000000002C
:10494800000000000000000000000000000000005F
:10495800000000000000000043000000000000000C
:10496800000000000000000000000000000000003F
:1049780000000000000000004300000000000000EC
:10498800000000000000000000000000000000001F
:1049980000000000000000004300000000000000CC
:1049A80000000000000000000000000000000000FF
:1049B80000000000000000004300000000000000AC
:1049C80000000000000000000000000000000000DF
:1049D800000000000000000043000000000000008C
:1049E80000000000000000000000000000000000BF
:1049F80000000000000000002143000855420008A4
:104A08000000000087470008854700087147000834
:104A1800714700087147000871470008714700088E
:104A2800714700087147000871470008714700087E
:104A3800FFFFFFFFFFFFFFFFFFFFFFFFFFFF00007C
:104A480001004153434949000000000000000000F4
:104A5800000000000000000000000000000000004E
:104A680000004153434949000000000000000000D5
:104A7800000000000000000000000000000000002E
:084A8800000000003254769892
:040000050800010DE1
:00000001FF
